:020000040000FA
:1000000000000130A200632882070C340A3409344E
:100010004D3409344D34613469346E3420344D34F8
:1000200065346E3475340D340A340A340A340934B4
:100030006634093446346934723473347434203489
:100040004E3461346D3465340D340A340A34093465
:100050006C3409344C3461347334743420344E3489
:1000600061346D3465340D340A340A340934703423
:100070000934503449344434203423340D340A34A0
:100080000A3409343234093454346F3467346734F1
:100090006C34653420345234433432340D340A34F1
:1000A0000A3409343334093454346F3467346734D0
:1000B0006C34653420345234433433340D340A34D0
:1000C0000A340A34003483018316833087000C30ED
:1000D00099002630980083129030980095288A2045
:1000E0008312663021020319C8286C3021020319DB
:1000F000D528323021020319EF28333021020319A9
:10010000F228703021020319E2284D302102031930
:1001100095286F288312981892288C1E8B281A080D
:10012000A1000800181218168B280030A20022081F
:10013000042083129900C3208312A20A5E30220297
:10014000031D97286F288207523461346E3464345B
:1001500079340D340A3482074F346234723469348E
:100160006E346734653472340D340A348207503487
:100170003034303431343134393432343034303452
:1001800039340D340A348316981CC42883120800AD
:100190000030A2002208A32083129900C320A20AE3
:1001A00007302202031DCA286F280030A20022084F
:1001B000AB2083129900C320A20A0A302202031D39
:1001C000D7286F280030A2002208B6208312990099
:1001D000C320A20A0C302202031DE4286F28071D49
:1001E000F528F728871DF928FB2807156F28071120
:0A01F0006F2887156F2887116F280C
:00000001FF
