:020000040000FA
:10000000000002288301831600308800E13086005A
:1000100005140030940083120030A400A500413084
:100020009F001F1524088800023086002C20250818
:100030008800043086002C201F1912289E0C9E0C6C
:100040009E0C9E0C9E0C07301E053520A400073028
:100050001E053E20A50011280630A000DD30A100BD
:10006000A10B3028A00B2E2808008207BF34BF3414
:100070008634DB34DB34CF34E634E63482074F3465
:0E00800067347C345B347F34663406340734D6
:00000001FF
