:020000040000FA
:0400000000000528CF
:080008003A2883018316003041
:100010008800E1308600D7308100831220308B00C9
:10002000D83081008B170030A400A500A600A700DF
:1000300024084620880010308600312025084620FC
:1000400088000830860031202608512088000430BE
:1000500086003120270846208800023086003120A3
:1000600018280630A000DD30A100A10B3528A00B18
:1000700033280800A200030EA3005C200B11D83027
:100080008100230E8300A20E220E090082073F3456
:1000900006345B344F3466346D347C3407347F343B
:1000A00067348207BF348634DB34CF34E634ED3432
:1000B000FC348734FF34E734A40A0A302402031DD9
:1000C00008000030A400A50A0A302502031D08001C
:1000D0000030A500A60A0A302602031D08000030E1
:1000E000A600A70A0A302702031D08000030A70057
:0200F000080006
:00000001FF
